:0C000000EBC0FECFFDCFFCCFFBCFFACF52
:10000C00F9CFF8CFF7CFF6CFF5CFF4CFF3CFF2CFC0
:10001C00F1CFF0CFEFCFEECFEDCFECCFEBCF102772
:10002C00E80364000A000100001000011000010048
:10003C005365742054696D657220426562616E313E
:10004C00005365742054696D6572204F6E2020201A
:10005C0020002564005365742054696D6572204F2F
:10006C0066662020200053657474696E67204669AB
:10007C006E6973682020005365742054696D657235
:10008C0020426562616E32005365742054696D655F
:10009C007220426562616E33005365742054696D41
:1000AC00657220426562616E34005434204F6E20BC
:1000BC00203E202532643A25326420005434204FEF
:1000CC006666203E202532643A2532642000543383
:1000DC00204F6E20203E202532643A2532642000C9
:1000EC005433204F6666203E202532643A25326414
:1000FC0020005432204F6E20203E202532643A25B9
:10010C00326420005432204F6666203E2025326433
:10011C003A25326420005431204F6E20203E202599
:10012C0032643A25326420005431204F6666203EFA
:10013C00202532643A25326420004A616D203D3E10
:10014C00202532643A2532643A2532642000546703
:10015C006C203D3E202532642F2532642F253264DD
:10016C00200080C01100E0003C001100F1004D00A7
:10017C001100020161001100130172001100240131
:10018C008300110035014D00110046016100110082
:10019C0057017200110068019400110079014D00A3
:1001AC0011008A01610011009B0172001100AC0169
:1001BC00A5001100BD014D001100CE016100110020
:1001CC00DF017200020030026E010000F894EE278D
:1001DC00ECBBF1E0FBBFEBBFE5BFF8E1F1BDE1BD6E
:1001EC008DE0A2E0BB27ED938A95E9F780E092E0E1
:1001FC00A0E6ED930197E9F7E0E7F1E085919591A1
:10020C00009761F0A591B59105901590BF01F00193
:10021C0005900D920197E1F7FB01F0CFEFE5EDBFF3
:10022C00E2E0EEBFC0EED0E031C2E5E0F0E05FD737
:10023C00E4E0F0E05CD7E7E0F0E059D753D6E6E035
:10024C00F0E055D7E9E0F0E052D7E8E0F0E04FD726
:10025C00EBE0F0E04CD75BD608957DD94BD700315D
:10026C00E0E01E072CF4A0E0B2E047D74BD7F7CF65
:10027C007CD90895FF921A93FF2410E0EEDFF0FC76
:10028C000EC143D742D78DD6EFE742D780990EC027
:10029C00AD81AA3211F441D708C042D7AAE245D7A2
:1002AC0019F048D74BD74CD71F5F4DD781990EC04B
:1002BC00AD81A73311F431D708C032D7A7E335D7B6
:1002CC0019F038D73BD73CD71F5F3DD782990EC06A
:1002DC00AD81A43311F421D708C022D7A4E325D7CC
:1002EC0019F028D72BD72CD71F5F2DD783990EC089
:1002FC00AD81A13311F411D708C012D7A1E315D7E2
:10030C0019F018D71BD71CD71F5F1DD7EFEB00D7E1
:10031C0080990EC0AD81A03311F4FFD608C000D770
:10032C00A0E303D719F006D709D70AD71F5F0BD75D
:10033C0081990EC0AD81A83311F4EFD608C0F0D668
:10034C00A8E3F3D619F0F6D6F9D6FAD61F5FFBD68A
:10035C0082990EC0AD81A53311F4DFD608C0E0D66A
:10036C00A5E3E3D619F0E6D6E9D6EAD61F5FEBD6BD
:10037C0083990EC0AD81A23311F4CFD608C0D0D66C
:10038C00A2E3D3D619F0D6D6D9D6DAD61F5FDBD6F0
:10039C00EFEDBED680990EC0AD81A33211F4BDD65F
:1003AC0008C0BED6A3E2C1D619F0C4D6C7D6C8D6EB
:1003BC001F5FC9D6819910C0AD81A93311F4ADD698
:1003CC0008C0AED6A9E3B1D619F0B4D6B7D6B8D614
:1003DC001F5FE4E6F0E0BBD682990EC0AD81A63378
:1003EC0011F49BD608C09CD6A6E39FD619F0A2D6D2
:1003FC00A5D6A6D61F5FA7D683990EC0AD81A33311
:10040C0011F48BD608C08CD6A3E38FD619F092D6F4
:10041C0095D696D61F5F97D6EFEE7AD680990EC0FA
:10042C00AD81A43411F479D608C07AD6A4E47DD673
:10043C0019F080D683D684D61F5F85D681990EC0DD
:10044C00AD81A33411F469D608C06AD6A3E46DD685
:10045C0019F070D673D674D61F5F75D682990EC0FC
:10046C00AD81A23411F459D608C05AD6A2E45DD697
:10047C0019F060D663D664D61F5F65D683990EC01B
:10048C00AD81A13411F449D608C04AD6A1E44DD6A9
:10049C0019F050D653D654D61F5F55D6F0CE1881CE
:1004AC002696FF900895FF9254D6E0EEF0E059D6D0
:1004BC005AD620D65BD634F45DD65FD661D663D6D9
:1004CC0021D6F8CF63D6E1EFF0E04BD664D670D6E8
:1004DC00E0EFF1E07DD683D6E4EFF1E079D6E09160
:1004EC00F00183D623D8E091F40182D684D6E2E0E1
:1004FC00F1E037D650D681D6E8EFF1E069D68DD64B
:10050C00ECEFF1E065D6E091F8018DD60FD8E091D3
:10051C00FC018CD670D6E3E1F1E0B0C0FF9219D6A5
:10052C00E4E2F1E01ED61FD6E5D520D634F422D66F
:10053C0024D626D628D6E6D5F8CF28D6E5E3F1E0A2
:10054C0010D629D635D6E1EFF1E042D648D6E5EF04
:10055C00F1E03ED66ED6E091F101E8D76DD6E09190
:10056C00F50149D6E6E4F1E0FCD515D646D6E9EF1F
:10057C00F1E02ED652D6EDEFF1E02AD660D6E0911E
:10058C00F901D4D75FD6E091FD0135D6E7E5F1E06E
:10059C0075C0FF92DED5E8E6F1E0E3D5E4D5AAD547
:1005AC00E5D534F4E7D5E9D5EBD5EDD5ABD5F8CF1A
:1005BC00EDD5E9E7F1E0D5D5EED5FAD5E2EFF1E0EE
:1005CC0007D60DD6E6EFF1E003D63FD6E091F20167
:1005DC00ADD73ED6E091F6010ED6EAE8F1E0C1D5F2
:1005EC00DAD50BD6EAEFF1E0F3D517D6EEEFF1E062
:1005FC00EFD531D6E091FA0199D730D6E091FE01D2
:10060C00FAD5EBE9F1E03AC0FF92A3D5ECEAF1E0C0
:10061C00A8D5A9D56FD5AAD534F4ACD5AED5B0D55F
:10062C00B2D570D5F8CFB2D5EDEBF1E09AD5B3D504
:10063C00BFD5E3EFF1E0CCD5D2D5E7EFF1E0C8D5EB
:10064C0010D6E091F30172D70FD6E091F701D3D514
:10065C00EEECF1E086D59FD5D0D5EBEFF1E0B8D537
:10066C00DCD5EFEFF1E0B4D502D6E091FB015ED71B
:10067C0001D6E091FF01BFD5EFEDF1E0FA93EA93DB
:10068C00BED471D56FD72E96FF900895E0E0EBBBEA
:10069C00EABBEFE0E8BBE0E0E7BBE0EFE5BBE4BBC7
:1006AC00EFEFE2BBE0EFE1BBE0E0E3BFE2BFECBFAA
:1006BC00EFBDEEBDEDBDECBDE7BDE6BDEBBDEABDEE
:1006CC00E9BDE8BDE2BDE5BDE4BDE3BDE5BFE4BF0A
:1006DC00E9BFEAB9E0E8E8B9E0E0E0BFE6B9EDB9B6
:1006EC00E6BF9DD6CAD5C9D5C8D5E6D3E0E1EA9315
:1006FC0094D44CD5AC98AD98AE98AF98C1D599D54B
:10070C00D0D5D3D5D6D5D9D5A0D5DBD5DED5E1D5A9
:10071C00E4D5A7D5E6D5E9D5ECD5EFD52197E0E022
:10072C00E883EFEEF5D4809919C09BD5DAD5DDD5E9
:10073C00E0D5E3D5E6D5E6EBF0E0D9D4E091F301D2
:10074C00E3D5E091F701E0D5E4D5E8ECF0E0CFD4C7
:10075C00E091FB01D9D5E091FF014CC0819919C002
:10076C0074D5AFD5B2D5B5D5B8D5CBD5EAEDF0E0CB
:10077C00BED4E091F201C8D5E091F601C5D5C9D53A
:10078C00ECEEF0E0B4D4E091FA01BED5E091FE01BC
:10079C0031C0829919C04DD584D587D58AD58DD5D0
:1007AC00B0D5EEEFF0E0A3D4E091F101ADD5E0913E
:1007BC00F501AAD5AED5E0E1F1E099D4E091F901CB
:1007CC00A3D5E091FD0116C0839924C059D599D5C4
:1007DC00E2E2F1E08CD4E091F00196D5E091F401E5
:1007EC0093D597D5E4E3F1E082D4E091F8018CD570
:1007FC00E091FC01FF276627772787D688E0E4D1B4
:10080C002C96C4D4E0E1F2E0ACD437D588D5E0ED39
:10081C00F7E09DD4B09902C046DE90C0B19902C0F9
:10082C007DDE8CC0B29902C0B4DE88C0B39902C020
:10083C00EBDE84C0C2D3F9DC64D5E6E4F1E057D436
:10084C00E52D62D5E42D60D5E72D5ED56ED515D599
:10085C00A8D3E0E1F2E085D4E0E2F2E048D4EAE5A6
:10086C00F1E045D4E92D50D5E82D4ED5EB2D4CD5E6
:10087C005CD555D505D5E091F001E51521F4E09155
:10088C00F401E41509F002C0AC9A0AC0E091F80139
:10089C00E51521F4E091FC01E41509F001C0AC98D8
:1008AC00C8D4FFD402D505D508D5E091F101E515E2
:1008BC0021F4E091F501E41509F002C0AD9A0AC0EB
:1008CC00E091F901E51521F4E091FD01E41509F041
:1008DC0001C0AD98BAD4F5D4F8D4FBD4FED4E091D1
:1008EC00F201E51521F4B4D415D6E41509F002C0D3
:1008FC00AE9A0AC0E091FA01E51521F4AFD40AD6FC
:10090C00E41509F001C0AE98ACD4EBD4EED4F1D41C
:10091C00F4D4E091F301E51521F4E091F701E4152D
:10092C0009F002C0AF9A0AC0E091FB01E51521F471
:10093C00E091FF01E41509F001C0AF98E4EFF1E09C
:10094C0006D42196EBCEFFCF06D6F3D41296F4D470
:10095C00F1F0EFD4F4D48F01309761F00230E0E085
:10096C001E07A0F0F80131978F01AA81BB81149664
:10097C00ED93FC93DED41296E5D43197AC81A08331
:10098C00D8D4BBD5FF2312F0D4D4DCD404C0D1D43A
:10099C00DFD4ED93FC93E6D560C12697D8D510E053
:1009AC00AC85BD85E0E0F0E0ED93FC93EA89FB8932
:1009BC003196EA8BFB8B3197E4912E2FE03009F4C2
:1009CC00FDC0E12FE03031F4253211F411E001C00B
:1009DC00C2D4F3C0E130A1F4253211F4BCD4ECC084
:1009EC0012E040E000E02D3211F401E0E6C02B32C1
:1009FC0011F44BE2E2C0203211F440E2DEC002C03E
:100A0C00E23039F450E013E0203311F40068D5C023
:100A1C0003C0E33009F0D1C0203310F02A3308F0C2
:100A2C0007C0AAE05A9F502DE22FE0535E0FC5C0BD
:100A3C00E22FE33639F497D499D495D4A481AA93B0
:100A4C0099D4BAC0E33731F49CD49DD49FD42ED31F
:100A5C001E2F08C0E03751F494D495D497D430D3DA
:100A6C001E2F086002600F7730E02EC0E43611F0C4
:100A7C00E93611F4046002C0E53729F4EAE2F0E04B
:100A8C0088D415E00BC0E83511F4086003C0E837D2
:100A9C0009F092C0E4E3F0E07CD414E002FF11C052
:100AAC0070D471D479D4AB85AA232AF4EA85FB855A
:100ABC0018D572D44DE2403011F01F5F01C00B7F8E
:100ACC0003C05FD460D468D400FD10C0151770F457
:100ADC0007FF08C002FF04C00B7F242F115001C078
:100AEC0020E301C020E237D45150F0CF312F01FF69
:100AFC0014C0303089F003FF05C0EE81FF812591D1
:100B0C0048D404C04CD42D91AE83BF8324D4503030
:100B1C0009F051503150EDCF46C020E3EE81FF81FA
:100B2C00F0D4E887F987EE81FF81329632D4E885DC
:100B3C00F985AA85BB85AE17BF0748F02F5FA8853E
:100B4C00B985EA85FB85EA1BFB0B26D4F0CF2A334B
:100B5C0028F003FF02C0295F01C0295D04FD19C004
:100B6C00213320F4A885B985119709F409C05317CE
:100B7C0010F000FF01C011C020E207FF0AC020E303
:100B8C00006102FF06C00B7F4A93F4D3503009F08A
:100B9C005150E1D3503009F051503150A885B985EE
:100BAC00129708F0BACF00FF07C0503029F051500F
:100BBC00E0E2EA93DFD3F9CF10E0F8CEAC85BD8547
:100BCC009CD4CCD464960895FF92F82E2697C1D469
:100BDC00DE011C9682D4B0D311F4BAD31CC0DE0152
:100BEC0016967BD48D01DE011C96DCD3D2D3E0E0CB
:100BFC00E887E987DE011A96D5D379D21A930A933E
:100C0C00EAEAF4E074D2FE013A9671D2C6DE9F0194
:100C1C00C6D3CBD3F901A4D42A96FF9008951A9386
:100C2C00C7D3C3D3AB81BC81EC911E2FE03011F044
:100C3C00BCD311C0BDD311967FD361F0E981FA8189
:100C4C00A181B281EC911E2FE03019F0B1D3119635
:100C5C0079D301C010E0E12F1881259608952597CE
:100C6C0076D4E0E0F0E0E887F9874E2FE989FA893D
:100C7C003196E98BFA8B3197E4913E2FE03009F4F1
:100C8C00F1C099D399F0EDB7FEB731D24F9372D32F
:100C9C004F913E2FE03011F08ED309F405C08FD365
:100CAC0014F456D3E1C0EFCF432FDBC0353209F03B
:100CBC00C5C050E0E989FA893591E98BFA8B30335C
:100CCC0010F03A3308F007C0AAE05A9F502DE32FDA
:100CDC00E0535E0FEFCF303009F4C4C0EDB7FEB770
:100CEC0006D24F9347D34F912E2FEA93C7D1E030C2
:100CFC0029F065D314F42CD3B7C0F0CF203009F40D
:100D0C00A9C0422F503009F45FEFE32FE33671F4A2
:100D1C005BD3EDB7FEB7EBD14F932CD34F91D801EA
:100D2C00EC934DD314F414D39FC082C0E33701F578
:100D3C004BD3E52F5150E030C1F0EDB7FEB7D7D112
:100D4C004F9318D34F913E2FE03011F034D329F04C
:100D5C0036D314F4FDD288C008C01F930F93D2D1A0
:100D6C00E32FAF91BF91EC93E4CFD8011ED360C0B9
:100D7C00E1E0EA87E32FE43611F0E93619F4E0E01C
:100D8C00EA8702C0E53711F42AE008C0E83711F40D
:100D9C0020E104C0E53209F451C064C0E0E0EE8308
:100DAC00EF83E52F5150E030C9F1EDB7FEB79FD17D
:100DBC004F93E0D24F913E2FE13228F400D314F43C
:100DCC00C7D252C015C0EA85E03039F43D3219F46F
:100DDC00EFEFEA87E6CFE1E0EA87203129F43A9396
:100DEC0057D1E03029F006C03A9340D1E03011F4ED
:100DFC00432F14C0313610F0375505C0313410F084
:100E0C00375301C03053E22FCAD2E9D26ED3DF017F
:100E1C00E32FE5D2EA0FFB1FBCD2C3CFD5D2EA85B4
:100E2C00BED2F0E0E7FDFFEF60D3D801ED93FC9369
:100E3C00E885F9853196E887F98713C0EDB7FEB7D9
:100E4C0056D14F9397D24F91E31759F0B8D214F46F
:100E5C007FD20AC0E885F985309711F479D204C0A5
:100E6C0001C004CFE885F98579D363960895FF9284
:100E7C00F82E239770D3DE0117962FD35DD211F481
:100E8C0067D216C0DE01119628D38D01DE011796AC
:100E9C0089D2EB83FC83DE01159684D228D11A9378
:100EAC000A93E5E1F6E023D1FE01389620D1D7DE96
:100EBC0059D32596FF900895EA81E370EA83E9817E
:100ECC00E03019F0EA81E061EA83E881E03019F062
:100EDC00EA81E068EA8385D2E7E087D216D1D8D2DE
:100EEC00B2D299C07ED2C9D1D3D281D284D2A881B8
:100EFC00B981EC9380D21DD2EC93BFD1AED2EA93E0
:100F0C00EAD0AC81BD81EC939ED22696089569D22D
:100F1C00E3E06BD26CD2E1E0EA939FD240D2EC9347
:100F2C006AD2AC81BD81EC9366D203D2EC93A5D18D
:100F3C0094D2EA93D0D0A881B981EC9384D228962C
:100F4C000895E881E07111F0DC9A01C0DC98E88129
:100F5C00E07211F0DD9A01C0DD98E881E07411F0C7
:100F6C00DE9A01C0DE98E881E07811F0DF9A01C0CA
:100F7C00DF988BE08A95F1F7DA9A8BE18A95F1F795
:100F8C00DA988BE18A95F1F76FC0E88139D2E88164
:100F9C00E295E883E88134D288EC90E00197F1F790
:100FAC0063C0E8811CD2E05DFD4FE081A981EA0FAE
:100FBC0029D2A980D88022960895E2E023D2E3E0DA
:100FCC00F0E0C5D0ECE01ED2E1E01CD2E3E0F0E0B2
:100FDC00BED0E0E0DE2EAE2E0895A881AA3011F02E
:100FEC00AC1438F04AD1D394DA92DBDFA881AA3062
:100FFC00D9F1A394D89AE88105D2D89835C01A9320
:10100C00D7D1ED91A983BA831E2FE03019F01A9332
:10101C00E4DFF6CF188123960895D49AD59AD69A00
:10102C00D79AD29AD09AD19ADA98D898D998C88067
:10103C00E881E058E0933202E881E054E093330217
:10104C00E4E1F0E084D0E0E3DBD1DED1DDD1E2D12C
:10105C00E0E2D6D1DFD1E8E2D5D1E4E0D3D1E5E8C6
:10106C00D1D1E6E0CFD1A9DF21960895E1E0F99145
:10107C00F03310F0FA3308F0EE270895E1E0F9911F
:10108C00F03229F0F93010F0FE3008F0EE27089518
:10109C00E1E0F991F05340F0FA3038F0FF75F75079
:1010AC00FA3010F0F03108F0EE270895A991B991BB
:1010BC00EE27FF276D91662311F03196FBCF089533
:1010CC00AA27BB27E991F9910590002011F0119600
:1010DC00FBCFFD010895E881E295EF70AE2FAA0FCA
:1010EC00AA0FEA0FEE0FA991AF70EA0F0895FA93C9
:1010FC00EA93089500E010E00895A00FB11FE0E01E
:10110C00EC9308950F5F1F4F0895EA81EA930895B9
:10111C00E2BBEEE1F0E0EBDFD4C16894F0F80895A7
:10112C00E12FF0E0E050FE4F0895A083EB81FC81AD
:10113C0030970895EA81E10FEA93E7CF32DFF0CFE1
:10114C00E081EA934ACFE8ECF0E0D1DFBAC1CFDF1F
:10115C00B8C12C9700D2FF2430DFE0E0EA93EA9389
:10116C0020CFC5DF4CCFE8EEF3E0F1CF0330E0E069
:10117C001E070895DE011B96C0CFDE011896BDCF69
:10118C00DE011596BACFDE011296B7CF16DFE0E07E
:10119C00EA93EA9306CFE3E2EA93E1E0F0E0A7DF1B
:1011AC00E0E0EA93E1E0EA9365D8E091000208956B
:1011BC00EB87E0910102EC87E0910302E887E09174
:1011CC000402E987FE013B9692DFEEE5F0E08FCF5B
:1011DC00662777279AD184E04ADE28960895FE0187
:1011EC00389685DFEEE5F0E082CFA0E0B0E0089520
:1011FC00A4E0B0E008959AD1C9CFED83E09101024B
:10120C00EE83E0910302EA83E0910402EB83FE019A
:10121C0035966DDFEEE5F0E06ACFFE01329667DFC2
:10122C00EEE5F0E064CFA8E0B0E00895ACE0B0E00B
:10123C000895A1E0B0E00895A5E0B0E00895A9E01C
:10124C00B0E00895ADE0B0E00895A2E0B0E00895FC
:10125C00A6E0B0E00895AAE0B0E00895AEE0B0E0FA
:10126C000895A3E0B0E00895A7E0B0E00895ABE0E6
:10127C00B0E00895AFE0B0E00895E0E0EA9308959F
:10128C00B4DF48D1E093F001B3DF44D1E093F40133
:10129C00CADF40D1E093F801C9DF3CD1E093FC01F7
:1012AC00089538D1E093F101C7CF34D1E093F50123
:1012BC00C6CF30D1E093F901C5CF2CD1E093FD011D
:1012CC00089528D1E093F201C3CF24D1E093F60125
:1012DC00C2CF20D1E093FA01C1CF1CD1E093FE0123
:1012EC00089518D1E093F301BFCF14D1E093F70127
:1012FC00BECF10D1E093FB01BDCF0CD1E093FF0129
:10130C000895E0E1F2E0F3CEFF2766277727FDD0C2
:10131C00089588E059DC2C96E0E2F2E0E8CEE1E0BA
:10132C00EA933FDEE0E2F2E01CCF8CE04DDC60960D
:10133C00A4CFAA81BB810895E0D03097089514966C
:10134C00DCD00895ED91FD913196FE93EE930895C6
:10135C00EFEFFFEF08952A93ED85FE85C8DEE9894E
:10136C00FA8909950895E889F98908953497E88BE5
:10137C00F98B0895ED85FE85BADEE989FA89099520
:10138C000895F1DFF3CFA889B989D9CFEE83FF8314
:10139C00AECEEE83FF830895EA87FB870895AE8176
:1013AC00BF8108959AD0A9D00895E0E0EC930895F8
:1013BC00A981BA8108953A9361DEE0300895AB8536
:1013CC00BC85AC91A0300895EF85F8893497EF87F0
:1013DC00F88BAF85B88914960D911C910895F0E0A7
:1013EC00089522D0E0EDEA9353C0EA9351C02BD07C
:1013FC001BD0E1EDFACFE1E0EA932FD0EA936BCE6C
:10140C00EA939FCDEA93C1CD80E991E00197F1F782
:10141C00E0E3F6CF80E991E00197F1F70895A89801
:10142C00A998A09AA19815C0A198A098EE270000A1
:10143C00999B0895989B089504D0A19A02D0A09AE4
:10144C00E1E06BE107C0A19AA09A03D0A098F9DF64
:10145C00A19865E36A95F1F7089578E0A098F1DF1B
:10146C00989BFECFEEDF889499990894A09AF1DFAF
:10147C00EE1F7A9599F77991772311F4A19801C011
:10148C00A19ADFDFA098E5DFA09ADBDFA198D9CF86
:10149C00E99178E0EE0F10F4A19801C0A19AD9DF80
:1014AC00A098CFDF989BFECFCCDFA09A7A9591F7CE
:1014BC00A198C7DFA098CDDFE1E09999EE27A09A1B
:1014CC00C0CFE991F991309639F080EA9FE001970D
:1014DC00F1F7A8953197C9F708950024AF0DB01D09
:1014EC000895F195E195F0400895FA9FF02DEB9F4A
:1014FC00F00DEA9FE02DF10D0895ED91FC911197FF
:10150C0008950590F491E02D08957A936A93FA93D7
:10151C00EA930895E199FECFFF93FFB7F894AEBB21
:10152C00BFBBE09AEDB3FFBFFF910895E19B02C0F2
:10153C00A895FCCF9FB7F894AEBBBFBBE09A8DB318
:10154C00E81719F0EDBBE29AE19A9FBF08955A9300
:10155C004A933A932A931A930A9308955D814C8186
:10156C003B812A8119810881089509911991089567
:00000001FF
